:040000006F20A05578
:100004000000000000000000600100007401000016
:10001400000000005825000000000000000000005F
:1000240058250000582500000000000000000000D2
:1000340058250000000000005825000000000000C2
:100044005825000058250000582500000000000035
:1000540058250000582500005825000058250000A8
:100064005825000058250000582500005825000098
:100074005825000058250000582500005825000088
:10008400582500005825000058250000780F00006E
:100094005825000058250000582500005825000068
:1000A400DC010000582500005825000058250000F8
:1000B4005825000058250000582500005825000048
:1000C40058250000B00F00005825000058250000F6
:1000D40058250000582500005825000000000000A5
:1000E400000000000000000000000000000000000C
:0C00F40000000000000000000000000000
:10010000397101436EC619A0397141536AC866CA74
:1001100062CC5ECE19A0397101535AD056D252D456
:100120004ED64AD826DA22DC06DE330161408282CE
:1001300041114AC026C222C406C68282B24D410184
:10014000024D924C224CB24B4101024B924A224A40
:10015000B2494101024992442244B24041018280A5
:1001600037F700E0832707D1DD9B2328F7D0730002
:100170005010CDBF011122CE26CCEF2030512AC61F
:10018000EF2030512A84EF203051B245AA840D650A
:100190001305C559EF30C0240D65A6851305C55C50
:1001A000EF300024B147314663E3870022868D6734
:1001B0009387C75E16060D653E96A2851305C55D3D
:1001C000EF300022B707EFBE724437E700E09387B5
:1001D00007083CC7E2440561730020301165EF2039
:1001E000005F0DC1EF20C02E0D651305C558EF301F
:1001F00060211165EF20805FB7E700E01307001072
:1002000023A2E7182165EF20805C0DC1EF20402C70
:100210000D651305C558EF30E01E2165EF20005D28
:10022000B7E700E01307001023A2E718730020309F
:10023000B7770240DA271376F60FC2051367070176
:10024000DAA7FA27C181420513670701FAA7D0B3DD
:10025000EEA34181962B8AAB9837A384070013073E
:100260007002BAA3D023C206C18213661600D0A3BF
:10027000D0233777024013662600D0A31C37E2074D
:10028000E187E3DD07FE1C3793E707081CB75E270D
:10029000C207C183BD9BC207C1835EA77E27C20779
:1002A000C183BD9BC207C1837EA71E2393E727009E
:1002B0001EA31E23C207C183F59BC207C1831EA3D1
:1002C0005C2393F7E70F5CA316AB9307B0033EA341
:1002D0005C2393E727005CA38280EFF27FE537146D
:1002E00001401305048093050002EF20406A1305C6
:1002F000048093050004EF2080698327048037077A
:1003000010FF7D17F98F37073000D98F2320F48035
:1003100013040480010001000100930500022285FE
:10032000EF20C06701000100010093050004228551
:10033000EF20C06601000100010029BDEFF25FDF80
:100340003717014083270780B70610FFFD16F58F8A
:10035000B706300013040780D58F22852320F7804D
:1003600093050002EF208063930500042285EF20AF
:100370000062010001000100930500022285EF20C8
:100380000061C9BBEFF2DFDAB714014083A7048034
:10039000370710FF7D17F98F37073000D98F23A05B
:1003A000F4802A84214993840480135674009305B1
:1003B00000022685EF20C05E0100010001009305C8
:1003C00000042685EF20A05C0100010001009305D8
:1003D0000004268506047D19EF20405C1374F40F99
:1003E000E31509FC85BBEFF2BFD437170140832723
:1003F0000780B70610FFFD16F58FB7068000D58F72
:10040000130407802320F7800100010001009305F9
:1004100000042285EF20A057010001000100930590
:1004200000022285EF200056AA849305000422854D
:10043000EF20C05601000100010093050002228553
:10044000EF20E0543305904031B3EFF2FFCB2A8424
:100450002E8AB28B59351305000D2D376937631E6F
:10046000050C13558400393FBD3F61E91375F40F46
:10047000113F953F79E1370B10FF814AB7190140D1
:100480007D1BB70C3000370C800083A709801374E4
:10049000FA0F13890980B3F76701B3E7970123A027
:1004A000F980A14413567400930500024A85EF2099
:1004B000204F010001000100930500044A85EF2050
:1004C000004D010001000100930500044A85060467
:1004D000FD14EF20A04C1374F40FE9F483A70980F6
:1004E00013840980B3F76701B3E7870123A0F9807C
:1004F000010001000100930500042285EF2020493E
:10050000010001000100930500022285EF208047D1
:10051000AA84930500042285EF20404801000100D1
:100520000100930500022285EF20604699E4850AC8
:10053000135A8A00E39B7AF5113519B1EFF25FBFC8
:100540002A860D651305C578EF20906937F700E01E
:10055000832707D1DD9B2328F7D073005010CDBF30
:10056000EFF21FBD4111C1473EC685472A843EC4F4
:100570002EC2EF20E0424C002285EF20C02741012F
:10058000D1BEEFF2FFBA4111AA87371401403EC233
:10059000C1472E863EC6AA858547130504C03EC4C2
:1005A000EF2000404C00130504C0EF20C02441019F
:1005B00055B622056146B7150140854705A81CCBF5
:1005C0001CCB1CCB1CCB1CCB1CCB1CCB1CCB1CCBF3
:1005D0001CCB5CCB5CCB5CCB5CCB5CCB5CCB5CCB23
:1005E0005CCB5CCB5CCB7D1606050DCA1387058002
:1005F000E35705FC1CCB1CCB1CCB1CCB1CCB1CCB56
:100600001CCB1CCB1CCB1CCB1CCB1CCB1CCB1CCBB2
:100610001CCB1CCB5CCB7D16060569FAB7170140D5
:10062000054723AAE7801305C0126F208075EFF2FB
:100630003FB002257E210D6542041305457B5D8C8C
:10064000EF20505C935534000D6585891305057CBA
:10065000EF2010590D65937534001305057DEF20CB
:100660003058935524000D6585891305057EEF20CC
:100670003057935544000D6585891305057FEF209C
:100680003056935574001165858913054580EF2018
:100690003055935584001165858913050581EF2038
:1006A000305493555400116585891305C581EF2099
:1006B000305393556400116585891305C582EF2079
:1006C00030521375A40059153335A0003305A040EE
:1006D00051B4EFF25FA42A849165116541119385AD
:1006E000C58313050584EF20B04F37190140054637
:1006F000894513050980EF20A02A1165130545855A
:10070000EF205050056A854493050A800546C1498B
:10071000130509C02EC24EC626C4EF2060284C0027
:10072000130509C0EF20200D0546130509C0856596
:1007300052C24EC626C4EF20A0264C00130509C0A5
:10074000EF20600B373901400146130509C085458C
:1007500023AC0180EF2020518145130509C0EF2013
:10076000A05104C044C0231404002305040023281E
:10077000040044C4232A0400232204022320040288
:1007800023040402230604024101C1B2EFF2BF9820
:100790009C4D354741119C232E84FD8B6383E70CD0
:1007A0001306900A81450145613491651165938571
:1007B000C58313050584B7140140EF207042054638
:1007C000894513850480EF20A01D1165130545851B
:1007D000EF205043056A93050A800546138504C03F
:1007E000C14905492EC24EC64AC4EF20601B13857D
:1007F00004C04C00EF2020000546138504C0856529
:1008000052C24EC64AC4EF20A019138504C04C0042
:10081000EF10707EB73401408545138504C0014652
:1008200023AC0180EF202044138504C08145EF20D4
:10083000A04485471CC05CC02314040023050400A9
:10084000232804005CC4232A04002322040223205A
:10085000040223040402230604027D5541016FF0C3
:10086000DF8EB7340140138504C0014685454DBF76
:10087000EFF27F8A98423689328A9367050419C35A
:10088000936705060327490019C393E707108346BA
:1008900089000326C90113172A00A606D58FC207AF
:1008A000C18393D687001EA2B367D7001CB203256D
:1008B000C90152868D490905EF207039090AB774BC
:1008C0000240994A054B0325C9010146D285EFF044
:1008D0003F961304A00F21A0EF20A04A1DC89C340E
:1008E00011457D1493F70702E5DBBA249C34931677
:1008F000070193E707029CB4C18201CF63985601B8
:10090000032789011C23FD8B638B67015145EF2071
:100910004047FD19E39909FA7D556FF01F831C3399
:100920000347890085839D8BE312F7FE9307170029
:100930009D8B2304F9000145CDB7EFF2CFFD4111A6
:100940002A84AA860146814535451D3779C113069B
:10095000900A81450145EFF0BF8D91651165938542
:10096000C58313050584B7140140EF2070270546A1
:10097000894513850480EF20A00211651305458584
:10098000EF205028056A93050A800546138504C0A8
:10099000C14905492EC24EC64AC4EF2060001385E6
:1009A00004C04C00EF1030650546138504C0856512
:1009B00052C24EC64AC4EF10B07E138504C04C002C
:1009C000EF107063B73401408545138504C00146BC
:1009D00023AC0180EF202029138504C08145EF203E
:1009E000A02985471CC05CC0231404002305040013
:1009F000232804005CC4232A0400232204022320A9
:100A0000040223040402230604027D5541016FF011
:100A1000CFF3B7340140138504C0014685454DBF6F
:100A2000EFF20FF1984DB54601111C232E84FD8B7A
:100A30006380D704BD466392D70834235E232166C2
:100A4000FD8AD18EC207D58F3EC4382399467D8B4F
:100A5000630BD70893E70708AE8611462C003D4587
:100A60003EC43935631A050C014505616FF08FEE00
:100A7000B734014001468545138504C023AC01808D
:100A8000EF20601E138504C08145EF20E01E8547DE
:100A90001CC05CC0231404002305040023280400A8
:100AA0005CC4232A0400232204022320040223041A
:100AB0000402230604027D554DBFAE8601468145E2
:100AC00011457D3355D1A2860146814535454D33CB
:100AD00045D11306900A81450145EFF06FF5228557
:100AE000CD3E7D5559B793E70704AE8611462C00DD
:100AF0003D453EC4B53B21E91C4CFE239D83858BBF
:100B000085CB91659385458611651305C586EF20D4
:100B1000300D084C293E0347C40293371500E30506
:100B2000F7F419E1194758C82306F4027D5535BF7B
:100B3000916593858586C9BF228501353335A0002F
:100B40003305A0401DB72285CD3B5DD57D5531BF16
:100B5000EFF28FDB23A00502377702401E23996650
:100B60004111D58F1EA337070200B7E700E023A28B
:100B7000E710AE8937F700E021A8832707D1DD9B76
:100B80002328F7D07300501083A70902639F071230
:100B900083A78181E3E3A7FEB77602409E226977AF
:100BA0007D17F98F9EA237070200B7E700E023A266
:100BB000E71837340140130504C0814523A009021A
:100BC00023AC0180EF20400B130504C0054685458A
:100BD000EF20600937140140B77A024095440C4475
:100BE00083D7EA0003D7CA00B9818607058B898BB2
:100BF000D98F1387D7FF83A6090193C5F5FF333734
:100C0000E000FD8D9317270033E9F5002E8B99CE78
:100C1000638E0510A384090003A5C90041017D1559
:100C2000133515003305A0406FF08FD1E5D583C78C
:100C30009900850793F7F70F6394970E85472D4723
:100C4000A384090023A8F90023A6E9006382F50A1A
:100C500083D70A0011650D4493E747002390FA00FB
:100C600013050589EF20C077E35824FB11651305B0
:100C70004585EF202079630D8B1837140140856A74
:100C80001376290093850A8013361600414A85445D
:100C9000130504C02EC252C626C4EF1070504C007B
:100CA000130504C0EF1030351346F9FF130504C0D7
:100CB000058A856556C252C626C4EF10704E4C0098
:100CC000130504C0EF10303381BFB77602409E2277
:100CD00069777D17F98F9EA237070200B7E700E01A
:100CE00023A2E71823A009027D5541016FF04FC5EB
:100CF00083D70A0011658545C207C183ED9BC207F2
:100D0000C1832390FA0013050589EF20606D8D479C
:100D1000E3D427F1116513054585EF20A06EB1BF1F
:100D2000A384F9000545EF20200955BD83C799002C
:100D30001547850793F7F70FE394E7FE0549373B1F
:100D40000140014613050BC0A384090023A8090034
:100D500023A629018545EF101071916511659385D2
:100D6000C58313050584EF20A06705468945130553
:100D70000480EF10F042116513054585EF2080686F
:100D8000056C93050C80C14B0546130504C02EC2AB
:100D90005EC64AC4EF10D0404C00130504C0EF10EB
:100DA00090250546130504C0856562C25EC64AC427
:100DB000EF10103F4C00130504C0EF10D023014684
:100DC00013050BC0854523AC0180EF10D0691305D6
:100DD0000BC08145EF10506A116523A0290123A2A1
:100DE0002901239409002385090023A8090023A6CB
:100DF000290123AA090023A2090223A009022384AE
:100E000009022386090213050588EF20A05F19BF98
:100E10001165930500171305858AEFF02FF2EFF2A5
:100E2000AFAE2A8B3D45B689EFF09FA471ED373404
:100E300001408145AA8A130504C023AC0180EF104C
:100E4000B06305468545130504C0EF10D061954B8E
:100E5000B77402403D4A79491304A00F21A0EF1056
:100E600050721DC09C3411457D1493F70702E5DBD9
:100E7000BA249C3493E707029CB419C783A789015D
:100E80009C23FD8B638947017D19E31709FCFD5AFB
:100E900056856FF0EFAA5145EF10B06E03A489019B
:100EA00003A709001C3085839D8B31EB13071014B9
:100EB0009306100403A6490003A5C901A60705EE81
:100EC000DD8E16A18945EFF0AFB63C2013F7F70190
:100ED000E31367F999830547E38CE7FA0947E38849
:100EE000E7FACE8513052003A53155F1FD1BE380FC
:100EF0000BFA794995B7D98F1EA10146E1B71307BF
:100F00001016930610067DB7CE86014681453545FD
:100F1000EFF01F9619C91306900A81450145EFF0BD
:100F20002FB14E85EFF0EFFA9DB7373401400146FF
:100F30008545130504C023AC0180EF10D0528145D4
:100F4000130504C0EF105053854723A0F90023A2D6
:100F5000F900239409002385090023A8090023A68A
:100F6000F90023AA090023A2090223A0090223846D
:100F700009022386090221BF411122C637340140EC
:100F80008545130504C0EF10704F09E53244410157
:100F90007300203083A78181130504C08545850730
:100FA00023ACF180EF10104F324441017300203028
:100FB000411126C422C603A441814AC24EC04DC479
:100FC000B77702409837137707043DE398371377D4
:100FD000070221CBA6279837C2041367070298B7E8
:100FE0001C40C180ADEF93071014930610045840C5
:100FF00011E3B6871824484C01462607D98F1EA155
:101000008945EFF0EFA25C5089CF37E900E0B709DE
:10101000020023223919A2852685829708D023222F
:1010200039113244A24412498249410173002030EF
:10103000983722851367070498B7EFF08FE983A7E5
:1010400041810547116598D31305C58EEF20803B7C
:101050003244A2441249824941017300203093076F
:1010600010169306100661B71165930590351305A8
:10107000058CEFF0AFCCEFF2AF8819710545EF109A
:101080005016EF108049EF10304D716513050520A3
:10109000EF10F055854537050010EF103032B707D7
:1010A000002083A5070211651305C591EF20403389
:1010B000EF10A06AAA8511651305C592EF20403292
:1010C0008545114537140140EF10702D01468545C7
:1010D00013050480EFF0CFC8054689451305048049
:1010E000EFF00FC80546A14513050480EFF04FC788
:1010F00085452145EF10B02A85452145EFF06FC8A1
:101100000565854513050580EFF0AFC78545056585
:10111000EFF02FC7116513050594EF20A02E85452C
:101120001145EF10D0279307000685449305000270
:1011300013050480BEC4C147BEC8A6C6EF10300563
:101140009305000413050480EF1070041309810453
:10115000CA8513050480EF10006A11651305059513
:10116000EF20402A85452145EF10702311651305B6
:10117000C595EF2020299147CA85130504C0BEC834
:10118000A6C4A6C6EF10206781450945EFF06FBFE2
:101190000945EF10103F05468945130504C0EF10BF
:1011A0003000EFF08F931305000DEFF0AF9DEFF0DF
:1011B0008FA319C16F10601F1545EFF0AF9CEFF0C2
:1011C0008FA219C16F10601EEFF0CF9BEFF0AFA19F
:1011D00019C16F10801DEFF04F901305100DEFF047
:1011E0006F9AEFF04FA09309810271E1370B10FF66
:1011F000CE8B130DC102B71A01407D1BB70C8000C6
:10120000370C300083A70A80138A0A800144B3F7A1
:101210006701B3E7970123A0FA80A1449305000476
:101220005285EF10C0760100010001009305000215
:101230005285EF102075AA87930500045285060495
:101240005D8CEF10A075010001000100FD14F9F4A0
:1012500023808B009305000213850A80EF10007431
:1012600083A70A8013840A80B3F76701B3E7870175
:1012700023A0FA80010001000100930500042285EB
:10128000EF10E070010001000100930500042285C9
:10129000EF10C07001000100010093050002850BF2
:1012A0002285EF10C06EE39FABF5EFF02F89A255BA
:1012B000116513058596EF20A0120D649305F408BF
:1012C0000D461305006AEFF04F989305A4000D46F4
:1012D0001305007A0564EFF04F97130584910946D2
:1012E00093051020EFF06F96B70400031146938525
:1012F000740013050480EFF04F9511651305C59731
:10130000EF2040100546954513050490EFF0EF934C
:101310001305401FEF10F026054695451305449030
:10132000EFF0AF921305401FEF10B025B705320064
:10133000130544910D4693855524EFF00F91054612
:10134000954513058490EFF04F901305401FEF1063
:10135000502311651305C598EF20C00AB715001377
:1013600013050480114693857510EFF00F8E130559
:10137000048011469385740037140140370B10FF29
:10138000EFF0AF8C916D130404807D1BB70B300020
:10139000370C8000930CC10413850D9AEF20800652
:1013A0001305401FEF10F01D228593050002EF107A
:1013B000005E930500042285EF10605D1C40B3F7CA
:1013C0006701B3E777011CC001000100010093052C
:1013D00000022285EF10805C0100010001009305EE
:1013E00000042285EF10805B0100010001001C4019
:1013F000214D9304000DB3F76701B3E777011CC0DB
:1014000013D67400930500022285EF106059010085
:1014100001000100930500042285EF1040570100F0
:101420000100010093050004228586047D1DEF1054
:10143000E05693F4F40FE3150DFC1C40B3F767017D
:10144000B3E787011CC001000100010093050004FF
:101450002285EF10C0530100010001009305000236
:101460002285EF102052AA84930500042285EF10F4
:10147000E052010001000100930500022285EF10F7
:1014800000516394042C1C40214AA144B3F7670126
:10149000B3E777011CC013D67400930500022285C0
:1014A000EF100050010001000100930500042285A7
:1014B000EF10E04D010001000100930500042285BA
:1014C00086047D1AEF10804D93F4F40FE3150AFCA7
:1014D0001C40B3F76701B3E787011CC0010001009E
:1014E0000100930500042285EF10604A010001000D
:1014F0000100930500022285EF10C048AA849305DD
:1015000000042285EF1080490100010001009305CD
:1015100000022285EF10A047639904221C40A144D9
:10152000B3F76701B3E777011CC0014693050002DA
:101530002285EF10E0460100010001009305000440
:101540002285EF10C0440100010001009305000452
:10155000FD142285EF108044E9F81C40B3F76701C1
:10156000B3E787011CC001000100010093050004DE
:101570002285EF10C0410100010001009305000227
:101580002285EF102040AA84930500042285EF10E5
:10159000E040010001000100930500022285EF10E8
:1015A000003F6394041A228593050002EF10203E49
:1015B000930500042285EF10803D1C40B3F76701BE
:1015C000B3E777011CC00100010001009305000290
:1015D0002285EF10A03C01000100010093050004EA
:1015E0002285EF10A03B0100010001001C40214AB0
:1015F0009304100DB3F76701B3E777011CC013D64E
:101600007400930500022285EF108039010001006B
:101610000100930500042285EF10603701000100EE
:10162000010093050004228586047D1AEF1000371F
:1016300093F4F40FE3150AFC1C40B3F76701B3E71A
:1016400087011CC0010001000100930500042285F0
:10165000EF10E03301000100010093050002228534
:10166000EF104032AA84930500042285EF10003366
:10167000010001000100930500022285EF102031D6
:10168000E9E4CA8A1C40214A8144B3F76701B3E701
:1016900087011CC0930500042285EF10402F010034
:1016A00001000100930500022285EF10A02DAA87FA
:1016B0009305000422858604DD8CEF10202E0100A6
:1016C000010001007D1AE3170AFC93050002228540
:1016D00023809A00EF10802C1C40B3F76701B3E71A
:1016E00077011CC001000100010093050004228560
:1016F000EF10E0290100010001009305000422859C
:10170000EF10C02901000100010093050002850AC5
:101710002285EF10C027E3979AF71C402285930596
:101720000002B3F76701B3E777011CC0EF10002791
:10173000930500042285EF108025010001000100BF
:10174000930500022285EF1080242647C167F98F98
:10175000E38407C411651305459BEF10B04A11657A
:101760001305059DEF10104A37140140114A130567
:101770000480930700080C083EC852CC02CAEF1040
:1017800080070C0813050480C1473EC802CCEF1047
:101790008006EF10A02A85448D474A85BECE82C4BC
:1017A00082C882CA82D082D282D482D682D882DA99
:1017B00082DC82DEA6C6A6CCEF10E0298545054571
:1017C000EF10A035854513050020EF10403D37246C
:1017D000014013050440EF00B06013050440930579
:1017E0005002EF00D076B7070E0013050440CE85F7
:1017F00002DE3EDA02D402D602D802DC82C082C205
:10180000230E9102EF003060854513050440EF0080
:10181000F06411651305C59DEF10D03E8545414527
:1018200082C482C682C8EF10803785450545EF1017
:101830000037854537050200EF108034B167CA854F
:1018400037150140BEC4D2C8A6C6EF00D07AB9454C
:10185000094582C482C682C882CAEF10A01591676A
:1018600031444A85BEC4A2C882C6A6CAEF00906FA2
:10187000BD450945EF100014A1674A85BEC4A2C842
:1018800082C6A6CAEF00106E11651305C59EEF1043
:101890007037056585451305058002D402D682C4DC
:1018A00082C623180104EF10802F373A01409307B6
:1018B000F002CA8513050AC0BEC49307301FBEC616
:1018C00023080104EF104033854513050AC0EF10CB
:1018D000603C930730024E852314F10223059102E8
:1018E00026D6EF106010854513050AC023AC018091
:1018F000EF10E035B70601409C4E377402401307E5
:10190000800693E707309CCE5AA47AA493878184FB
:10191000BED0B707002093874704BED2A1471EA0C0
:10192000F1571CB40146854513050AC023AA21813D
:1019300023AC0180EF102033814513050AC0EF105E
:10194000A033A6C4A6C6231801042309010482CC2F
:10195000A6CA82CE82D423080106230A01061E20CD
:1019600082D60357010693E727001EA01E20916A26
:10197000916CC207C183F59BC207C1831EA05C2086
:10198000056C93F7E70F5CA01AA89307B0033EA07D
:101990005C20938A0AD5938C8CDD93E727005CA0AA
:1019A000130C0CA2930BC078B7760240B714014019
:1019B0008C44FE26DA26B9818607058B898BD98F60
:1019C0001387D7FF93C5F5FF3337E000FD8D9317DD
:1019D000270033E4F5002E8A630D0D6E638F0544F6
:1019E000A3080104D647130710026365F7788A0736
:1019F000D6979C438287CA86014681453545EFE0EC
:101A00003FE75DCD1306900A81450145EFE05F8217
:101A1000916511659385C58313050584371A0140C7
:101A2000EF10101C0546894513050A80EF0050771A
:101A3000116513054585EF10F01C056D05449305F0
:101A40000D800546C14413050AC02ED426D822D6DF
:101A5000EF001075CE8513050AC0EF00D05905467A
:101A600013050AC0856526D86AD422D6EF005073C4
:101A7000CE8513050AC0EF001058B7340140014667
:101A80008545138504C023AC0180EF10C01D81453E
:101A9000138504C0EF10401EA2C4A2C6231801047F
:101AA0002309010482CCA2CA82CE82D682D4230822
:101AB0000106230A01065145EF10A02C664DEDB535
:101AC0003734014001468545130504C023AC01802D
:101AD000EF1060198145130504C0EF10E019854728
:101AE000BEC4BEC6231801042309010482CCBECAA9
:101AF00065BF37240140130504409D4605469145C6
:101B0000EF005038130504408545B7240140EF002D
:101B1000F0351384044089452285EF00B04265DD2D
:101B200013850440EF00904185679387F768B305FC
:101B3000F5021165130545A1B181EF10700ACA863F
:101B4000014681451945EFE0BFD2630D0570FD47A1
:101B5000BECA95B7CA86014681450D45EFE05FD103
:101B60007DF5C947BECA81BF13050070EFE07FA4B1
:101B70001165EF00B0472165EF005047B7E700E07F
:101B800013070010116523A2E710130505A0EF103D
:101B9000700737F700E0832707D1DD9B2328F7D0B4
:101BA0007300501009BFF6471947E366F7F08A073C
:101BB000E6979C43828791651165938505A113057E
:101BC0000584EF10F00137150140014689451305E2
:101BD0000580EF00F05C373401408145130504C0F7
:101BE00023AC0180EF1040098545130504C005466C
:101BF000EF106007CA851305800CDED6EFE05FF5B5
:101C0000E31B05EAB147BECA7DB5F944377402400B
:101C1000094A130DA00F39A07D1D1145EF10601664
:101C200063010D021C3493F70702FDD73A241C34DC
:101C300093E707021CB411C786579C23FD8B638171
:101C4000475FFD14F9F493071002BECAADB5C14455
:101C50000DA083472105850793F7F70F2309F104AA
:101C6000638C975ACA8513056009EFE07FEEE31491
:101C700005E4CA861146938501810545EFE05FBF03
:101C800069F9B947BECA05BD378701FF8347010718
:101C900011073AC8E3800702A207D98FCA86114606
:101CA0000C083D453EC8EFE0BFBC631E057E3734DF
:101CB0000140130504C0814523AC0180EF00D07BB7
:101CC000130504C005468545EF00F079154D3774BE
:101CD00002403D4A93042003930DA00F39A0FD1D3F
:101CE0001145EF10000A63810D021C3493F70702BF
:101CF000FDD73A241C3493E707021CB411C786575A
:101D00009C23FD8B6385474BFD14F9F41165130586
:101D100045C6EF10206F82CE79BBB78701FFC107A0
:101D20003EC8CA86854721460C0841453ECAEFF0A9
:101D30000F8FE31205D80655EFE07F8F631505740A
:101D40009947BECE8DBBB78701FF8D07CA86114666
:101D50000C080D453EC8EFF08F8CAA8461E98655CA
:101D60004E859C31990513D447001D887D141316A8
:101D70002400EF10C06D635B800A4E8A0147116634
:101D8000916D0507BA85130506BD3AC6EF1040658B
:101D9000032D0A001385CDBD110A93753D00EF1088
:101DA0002064916793556D008589138507BFEF10F7
:101DB000206393578D0093F5F70F9167138547C004
:101DC000EF10006232471166E34D87FA225A9547B9
:101DD00013775A006307F76A05476309E404325A28
:101DE00013775A00630FF76409476301E404425A0A
:101DF00013775A006300F76A0D476309E402525AE9
:101E000013775A00630EF76811476301E402625AC0
:101E100013775A006303F76899476319F400725AFD
:101E20009547954413775A00630FF76011651305C2
:101E300045C3EF10205D82CEBDB98347110515471C
:101E4000850793F7F70F6380E74AA308F104A5B16C
:101E5000B78700FF8907CA8611460C0809453EC8A6
:101E6000EFE0FFFB631005468657D62363830654D5
:101E70004167130717F0638FE606B623638B06529C
:101E8000638AE6069627638606526385E606F6238E
:101E9000638106526380E606D627638C065041674D
:101EA000130717F06388E604B6276384065063833C
:101EB000E604962B638F064E638EE602F627638A4E
:101EC000064E6389E602D62B6385064E6384E602DE
:101ED000B62B6380064E4167130717F0638CE6004C
:101EE000962F6388064C6387E600FE2B6383074CBE
:101EF000E393E7BC8D47BECE7DBEB78700FF850765
:101F0000CA8611460C0805453EC8EFE05FF1631331
:101F1000053A86554E85416A9C3199057D1A13D440
:101F200047001D887D1413162400EF1040521165E0
:101F3000130505A6EF10004DA25411651305C5A6A3
:101F4000B3F54401EF10C049425D11651305C5A703
:101F500093550D01EF10C0481165B3754D01130580
:101F6000C5A8EF10E04713DAB401137A7A001165BF
:101F7000D2851305C5A9EF10A046116593D5F401CC
:101F8000130585AAEF10C04593D5E4011165858935
:101F9000130545ABEF10C04493D5A40111658589A5
:101FA000130545ACEF10C043B2551165130505ADDF
:101FB000EF100043B7070004E58F638C0746954791
:101FC0006315FA008D4763CE873E8947BECEE5B4E0
:101FD000CA851305800CEFE0BFB7F1BC3734014070
:101FE000130504C085448145230A910623AC018072
:101FF000EF00904805468545130504C0EF00B04644
:1020000011651305C5CDEF10E03F916D9165938586
:10201000C5831385CDCFEF10A03C37140140054692
:10202000130504C0A145214D414A6AD452D826D691
:10203000EF001017CE85130504C0EF00C07BCA85E2
:102040001545EFE0FFB0E31805A61165B78701FF5E
:10205000C507130545D13EC8EF10C03AB777024017
:10206000922313050480A145098213461600058AB0
:102070006AD452D826D6EF00B012CE85130504805C
:10208000EF00607793076040CA8621460C084545FB
:102090003ECAEFE0DFD8E31005A29165938505A164
:1020A0001385CDCFEF10C0330146130504C0A14501
:1020B0006AD452D826D6EF00B00ECE85130504C0E0
:1020C000EF0060731165130545D2EF10A03382CE87
:1020D000DDB2E3870590834711051547850793F720
:1020E000F70FE394E7D685472D47A3080104BECC3C
:1020F000BACA6388F5089E2211658D4493E74700AC
:102100009EA213050589EF10A02DE3DD848C1165D7
:1021100013054585EF10002F63059A3AB714014067
:10212000856D1376240093850D8013361600414D7E
:10213000054A138504C02ED46AD852D6EF00500643
:10214000CE85138504C0EF00006B1346F4FF1385A2
:1021500004C0058A85656ED46AD852D6EF00500453
:10216000CE85138504C0EF000069D647130710021F
:10217000E37FF7861165930560511305C5D3EFE042
:10218000EFBB9E2211658545C207C183ED9BC20747
:10219000C1839EA213050589EF1080248D47E3D3E8
:1021A0008784116513054585EF10C02585BF51450E
:1021B000EF00303D865426479C3085839D8B63110C
:1021C000070E130710149306100436461655A6077B
:1021D00021E2DD8E16A18945EFE08F85BC201147F5
:1021E00093F6F701E398E6AE998305476384E70E1B
:1021F0000947E38DE7B0CA8513052003EFE05F953B
:10220000E31605B07D1DE3030DB093042003E9B48C
:102210005D8F1AA10146C1B78547BECA6FF0BF895D
:102220005145EF001036065426471C3085839D8BA0
:102230002DEF1307101493061004364611E236876B
:102240001655A6075D8F1AA101468945EFD05FFE9E
:102250005C30054791839D8BE397E79EBD47BECADF
:102260006FF07F8537050700EFE0AFB437340140EA
:10227000130504C0814523AC0180EF00F01F130556
:1022800004C005468545EF00101E116585471305FE
:1022900085A2E2D682CABECEEF10C0166FF0BF8113
:1022A00013071016930610060DB7130710169306A2
:1022B000100661B71165130545A4EF10A01482CE76
:1022C0006FF06FFF1165130585B8EF10A01382CE74
:1022D0006FF06FFE1165130505CAEF10A012954748
:1022E000BECE6FF04FFD373A01400544014613055D
:1022F0000AC08545A308010482CCA2CAEF00B0162B
:10230000916511659385C58313050584EF10400D14
:102310000546894513850480EF0080681165130523
:102320004585EF10200E856D93850D80414D054646
:10233000138504C02ED46AD822D6EF006066CE85FD
:10234000138504C0EF00204B0546138504C0856546
:102350006ED46AD822D6EF00A064CE85138504C05F
:10236000EF006049014613050AC0854523AC018092
:10237000EF00700F13050AC08145EF00F00F1165E3
:1023800013050588A2C4A2C6231801042309010469
:1023900082CCA2CA82CE82D682D423080106230A26
:1023A0000106EF1020066FF00FF1930981026FE034
:1023B0001FF011651305C5BAEF10C00482CE6FF08F
:1023C0008FEF52541165130505AE9355C401EF10FC
:1023D0002001935584011165BD89130545AFEF10A8
:1023E00020009355340011658589130585B0EF00F1
:1023F000307F9355440011658589130585B1EF0041
:10240000307E9355540011659D89130585B2EF0008
:10241000307D1165937574001305C5B3EF00507CD2
:10242000935584001165BD891305C5B4EF00507B39
:1024300069BE1165130505B6EF00D07C82CE6FF042
:102440008FE7854409441165A2851305C5C1EF00D6
:1024500030791387140093172A0093568A0093F754
:1024600007101377F70F93F6F60F5D8FC206935799
:102470000A01E207558FD98FBED89147BECE6FF0C3
:102480008FE30544C9B711651305C5CBEF009077FD
:102490006FF01F8B89440D447DB79144154465B797
:1024A0008D4411444DB74A85EFE02FC9E301058003
:1024B0006FF0DF8511659305C02B130545C5EFE06F
:1024C000EF871165930500171305858AEFE00F87E5
:1024D000B71702409843B70600F99386F6F51367DD
:1024E000170098C3D84313670705D8C3D843758F1F
:1024F000D8C3372702401443F19A14C3144393E618
:10250000260014C3D44393F6F6F0D4C3D44393E621
:102510000601D4C385471CC38280B7160240DC4243
:10252000918313F7F700B707002093870700BA9746
:102530009C23D4423777DC0293F7F70F130707C0C9
:1025400093F606083356F70099E23356F702B707B9
:10255000002023A0C702828001A097E1FF1F938182
:10256000612C173100201301E1A917250000130584
:10257000258997E5FF1F9385E5A81386418163FAB6
:10258000C5008322050023A0550011059105E3EA4B
:10259000C5FE138541819385C1866377B5002320ED
:1025A00005001105E36DB5FEFD42739002BC8D423E
:1025B00073904280930280087390023097E2FFFF8D
:1025C000938282A493E2320073905230EFF05FF076
:1025D00097F2FFFF938262AA739012347300203047
:1025E000B727014093870740631EF500EFD25FB421
:1025F000854513050020D523814513050020F12BC7
:102600006FD05FB582805C413707F1E01307F7EFC9
:10261000944D7D8F9C41D58FD44DD58FD441A2064A
:10262000D58FD98F5CC11C4537F7F1FF1307D77FD2
:10263000D4457D8F9C49D58F94458606D58FD98FFB
:102640001CC55C55370710FF7D177D8FDC29FD17F2
:1026500093F7F70FD207D98F5CD582801C4589C5C7
:1026600093E717001CC58280F99BEDBF1C4591C5FF
:1026700037075000D98F1CC582803707B0FF7D1700
:10268000F98FD5BFA54763F7B7048D47138765FF5B
:102690003307F7020328C5009D47B397E70093C7A8
:1026A000F7FFB3F70701B396E600DD8E54C59947EF
:1026B00063E3C70495477D163306F6025859FD4774
:1026C000B397C70093C7F7FFF98F3396C5005D8EA8
:1026D00050D982800D473387E502032805019D47C5
:1026E000B397E70093C7F7FFB3F70701B396E60088
:1026F000DD8E14C96DBFB14763E2C7029547651609
:102700003306F6021859FD47B397C70093C7F7FF82
:10271000F98F3396C5005D8E10D9828095474D168E
:102720003306F6025855FD47B397C70093C7F7FF26
:10273000F98FB395C500DD8D4CD582806845420583
:102740004181828008416D8D3335A00082803C49F3
:1027500093F707E0DD8D2CC98280B7F7FF1F03A533
:10276000477082805841032805004C4537060140D8
:10277000930706403E979346F8FFB1C58325064070
:10278000F58D2320B640D043F18ED4C31443B3E675
:10279000060114C3184190479346F7FF758E90C702
:1027A000D047F18ED4C7144541466399C60094477B
:1027B000D98E94C7D447558FD8C78280B697944393
:1027C000558F98C382801C43F58F1CC38280B70746
:1027D00001401387074083A70740584B698F09C7FB
:1027E0007D8D3335A000828001458280B70701408E
:1027F00023AAA74082809845937707011378F700B2
:1028000081C7DC413368F8009441814713F6F60F25
:1028100039C21C410146854E3D4F930F8002930201
:102820008004214EB398CE00B3F516016391B8022F
:1028300013132600B3156F0093C5F5FFED8F331307
:102840006800B367F3006315F70F232A1501050627
:10285000E31AC6FD1CC14166130606F0758E49C217
:1028600037F6FF1F032646701376060F7DE23716F4
:102870000140930506806312B50C83A74180A145F2
:10288000854E3D4F930F800293028004414E339357
:10289000BE0033F666006312C302139625000116CC
:1028A000B318CF0093C8F8FFB3F7F8003316C80089
:1028B000D18F6312F70B232A65008505E399C5FDC7
:1028C0005CC137F6FF1F032646701376060F09EA30
:1028D00037160140930506806314B50823A2F180E2
:1028E000C16763E6F604504D8147054E3D4F930F97
:1028F000800293028004A14E93850701B315BE00A8
:10290000B3F8B600639115039398270033131F01A2
:102910001343F3FF3376C300B318180133E6C8003E
:10292000631CF7054CC98507E398D7FD50CD82801D
:10293000E31F57F02328150119BF930506C063153F
:10294000B50083A7818025BFE31BC5F283A7C180A3
:102950003DB75C412DB7E31257F623286500B1BFA0
:10296000930506C06315B50023A4F18095BFE31954
:10297000C5F623A6F180ADB7E31757FAB315FE00ED
:102980000CD155B708456D8D3335A00082809397E3
:102990000501C1831CC9C1810CD182804CC98280D0
:1029A00001CA93970501C1831CC9C1810CD18280E2
:1029B0004CC9828093F7F500918113972500B705E4
:1029C0000140BA95944586070D473317F700134722
:1029D000F7FF758F98C598453315F500598D88C553
:1029E000828023AEA180828003A7C1818547142104
:1029F0006310F7021C31639CE7023C21960793E7C2
:102A000007F837E700E093F7F70F36972300F74012
:102A1000054793D756003317D700544189CE938783
:102A200007048A07B7E600E0B69798C38280EDF303
:102A30003C219607F9B793870706E5B7B7076745BF
:102A400037670240938737125CC7B797EFCD9387FC
:102A5000B79A5CC7828037670240122336235C41F5
:102A6000584313180601C20613580801C182A5EF86
:102A70005C5993F6F6CF1045A607DD8E5C45C1750F
:102A800006068E0785055D8E6D8F518F1049C20633
:102A9000C1821606598E58491A07518F5C4D104D48
:102AA00093F606F08A073366C800D18F1051C2062C
:102AB000C1821206D18F50511A06D18F10552206AD
:102AC000D18F50552A06D18F1059C207C1832E06C7
:102AD000D18F1221C207C183D18E376602401EA258
:102AE00036A258C282800546E39AC7FA5C597D76C1
:102AF0001306F63FF18EAE07DD8E10455C453E07AE
:102B00004606CE075D8E3D83518F1049C206C182B5
:102B10005606598E58495A0749B7120585473395C5
:102B2000A7006398F500376702405C435D8D48C39A
:102B30008280B7670240D8431345F5FF798DC8C33B
:102B40008280B777DC02938707C01CC1371602402A
:102B5000584211839376F7003707002013070701C7
:102B600036971423504293F6F60F1376060833D7A0
:102B7000D70019E233D7D70258C118C558C582808B
:102B800099C5371702405C4B5D8D48CB8280B717E3
:102B90000240D84B1345F5FF798DC8CB828099C58B
:102BA000371702401C4F5D8D08CF8280B717024057
:102BB000984F1345F5FF798D88CF828099C53717D7
:102BC00002405C4F5D8D48CF8280B7170240D84FDE
:102BD0001345F5FF798DC8CF828099C5371702401C
:102BE0005C475D8D48C78280B7170240D8471345C0
:102BF000F5FF798DC8C782801E2137370140130742
:102C000007C0C207C1836306E500370700406316AB
:102C1000E500BA2193F7F7F8D98FFA2193F7F7CFA8
:102C2000C207C183D98F1EA1DE215EB59E211EB5CC
:102C3000B7370140938707C06306F500B707004028
:102C40006314F5009C251EB985475EA982801E216C
:102C500089C593E717001EA18280C207C183F99B33
:102C6000C207C183CDBF5E2501C6DD8D4EA5828022
:102C700093C5F5FFFD8DDDBF4EB182801E294A252B
:102C8000ED8F4205418189C76D8D3335A00082806B
:102C90000145828093C5F5FFC205C1810EA98280DE
:102CA000EFD20FC91629F577FD17F58FF621DA2532
:102CB0000111D58F1EA95625FD779387379FF58F74
:102CC000D6212A842EC6D58F9625D58FB625D58FA9
:102CD0005EA55E29C207C18393F7F7CFD98F5EA99E
:102CE0000808EFF01FE6B747014093870780B24519
:102CF000631EF402F2476547B387E70298419306E3
:102D000040060A07B3D7E70233D7D702B3F7D70293
:102D10001207920793872703B3D7D702BD8BD98FAA
:102D2000C207C1831EA405616FD0CFC2E247E1B7DD
:102D300091C55E250967D98F5EA582805A25F977EE
:102D4000FD17F98FD5BF93F5F51F4EA182800A219B
:102D50006D8D3335A0008280B707002083A707025E
:102D600037177A0013070720B3D7E70293F7F70F57
:102D70002381F1821307803EB387E7022390F1821B
:102D80008280B7F700E0D8438146799BD8C303C758
:102D900021823306A70290CBD4CB98431367070157
:102DA00098C398431367170298C3D843058B75DF00
:102DB0009843799B98C38280B7F700E0D843814657
:102DC000799BD8C303D701823306A70290CBD4CB1B
:102DD00098431367070198C398431367170298C372
:102DE000D843058B75DF9843799B98C38280EFD2D7
:102DF0002FB401112A84854537050200EFF01FDC4E
:102E000085451145EFF0BFD991473EC237150140C6
:102E100085473EC44C00E147130505803EC6EFF0F0
:102E20009F9D22C837440040B70708000C081305CF
:102E300004403ECC02CA231E0100EFF07FE6854528
:102E400013050440EFF0DFEE05616FD0AFB0EFD2B5
:102E50008FACB7440040AE8932890144938404406A
:102E6000634524014A856FD04FAE93050004268543
:102E7000EFF0FFED7DD9B3878900838507002685B4
:102E80000504C205C181EFF01FECD9BF73251034D2
:102E90008280732520348280732530348280011132
:102EA00006CE2EC60DCD1841AA8705C358417D55C3
:102EB00011CB8546631BD70098472300070023A248
:102EC00007000545F240056182809847B24614A389
:102ED0009847050798C7D8437D17D8C3DDB705467F
:102EE0006C00EFF0DFF6F1BF797122D426D24ECE1E
:102EF00052CC56CA06D64AD05AC82A8AAE8A3284DA
:102F000081449309000263440602B3879A008387D1
:102F100007009DE363D6840263D2E402198C93F721
:102F200026009309000281C719E393090003858AEB
:102F3000014985EA228931A88504C1BF058CC5B73E
:102F40000144F1BFCE8552853AC6EFF05FF53247B6
:102F50007D19E34920FF22896353040001493304AA
:102F6000244163CBE402CA84B3872441D697838586
:102F70000700A1E122896343200563530400014453
:102F800033059400B250225492540259F249624AD5
:102F9000D24A424B45618280B3049740268B930509
:102FA000000352857D1BEFF09FEFE31A0BFE26997D
:102FB0005DBF5285EFF0BFEE85047DB7CE855285AB
:102FC000EFF0FFED7D1945BF5D71A6C252DC86C6EC
:102FD000A2C4CAC04EDE56DABA843E8A9DE1930787
:102FE00000030147D28626862C08FC84EFF0DFEF31
:102FF000B640264496440649F259625AD25A616153
:1030000082802A893684C68A91CAA94701446317F7
:10301000F60063D50500B305B0400544A3070102DF
:103020009307F102A546130568FC33F7C50263D385
:10303000E6002A9713070703A38FE7FE9389F7FF9C
:1030400033D7C50263FBC50409CCB9C813772A007E
:1030500021CB9305D0024A8542C6EFF05FE43248A7
:10306000FD1493774A008DC3930710069305000360
:103070004A85631FF802EFF09FE2930580074A85B7
:10308000EFF0FFE10904F9145687D2862686CE8533
:103090004A85EFF07FE52295A1BFBA85CE8771B74B
:1030A0001307D002A38FE9FE01449389E7FF55BFC0
:1030B000EFF0FFDE93058005D9B701458280014519
:1030C000828039715AD0116B22DC26DA4AD84ED66A
:1030D00052D456D25ECE62CC06DE66CAAA892E894A
:1030E0003284014A8144930B5002930AB002294C66
:1030F000130B4BDF830509008DE5638609008145CD
:103100004E85EFF0DFD9F250625426854259D254F1
:10311000B259225A925A025BF24B624CD24C216154
:103120008280638875014E85EFF07FD7850405099D
:10313000D1B783071900930C1900639A770193059F
:1031400050024E85EFF0BFD585046689CDB7D5D73F
:103150006387570563C8FA00130730026384E704E6
:10316000814705A01307D002638AE7001307000315
:10317000E398E7FE930C2900894721A0930C2900CE
:10318000854703870C006303570563C1EA02930672
:103190003002630BD70266890146A54535A8930C1A
:1031A00029007DBF930C29009147E1BF9306D0020F
:1031B0006309D70093060003E31FD7FC93E72700BA
:1031C00031A0850C8547C1BF93E74700850CE1B767
:1031D000330686030509369603070900930607FDA3
:1031E00013F5F60FE3F6A5FE9305E0029946631E7C
:1031F000B70005098146A54503070900130707FD28
:103200001375F70F63F5A502368A030709009305C6
:10321000A0066301B70A63C1E5029305C004630B0E
:10322000B708930580066300B70881452DA0B386D3
:1032300086030509BA96C9B793054007630CB7061C
:103240009305A0076308B7061305C00681456314FC
:10325000A700050991450307090013050006130897
:1032600010066344E500130810041305700663405C
:10327000E506130550066355A71413057004634D46
:10328000E50293055004635DB71293063004E31022
:10329000D7EA1840930C4400A30601005886BE8666
:1032A00001476C0041A0030519008145E315E5FACB
:1032B000090955B7050995BF93063006E30BD7FCFE
:1032C00063C6E606930680056303D7028DB59306B1
:1032D00030076301D70463C8E6029306F006630E65
:1032E000D70A9306000793E74700E312D7E4D9CD46
:1032F0001D04937584FFC288138485003E880147AE
:10330000B287C1463DA8930650076300D7069306CF
:1033100080075DBF1840930C4400DA8511C3BA855D
:103320005287BE864E85EFF03FBC2DA895C11D0487
:10333000937584FFC288138485003E880547B28751
:10334000A946D0418C414E85EFF03FD7AA94C5B332
:10335000930C4400D2883287854629460C404E851E
:10336000EFF09FC6AA946684D9B399C91D049375DA
:1033700084FFC288138485003E880147B287C9B79D
:10338000930C4400D28832878146C1BF3287930CA8
:103390004400D28881464146D1B781CD1D04937542
:1033A00084FFC288138485003E880147B287A14606
:1033B00049BF3287930C4400D2888146214679BFA9
:1033C0001D04937584FF138485003287D0418C419E
:1033D000C2884E853E88B687A946EFF05FCEBDB75E
:1033E00039712ED232D4AA855010014506CE36D678
:1033F0003AD83EDA42DC46DE32C6EFF09FCCF240ED
:1034000021618280011122CC26CA06CE1C21AA8409
:103410000144DC878307F100050499EFA947930570
:10342000F10005460145DC87EFF07FA22285F240DE
:103430006244D2440561828005469305F10001454E
:10344000EFF0FFA0B38784009C23DC87E1B7B3478C
:10345000B5008D8BB308C500B1E78D4763F4C70491
:10346000937735002A87B1EB13F6C8FFB306E64021
:103470009307000263C5D706AE86BA876371C70299
:1034800003A806009107910623AE07FFE3EAC7FEF3
:103490009307F6FF998FF19B91073E97BE95636660
:1034A000170182802A87637B15039C210507850508
:1034B000A30FF7FEE39BE8FE828094210507937734
:1034C0003700A30FD7FE8505C5D394210507937751
:1034D0003700A30FD7FE8505EDF379B78280411140
:1034E00022C61304000283A3050083A2450083AF14
:1034F000850003AFC50083AE050103AE450103A3FC
:10350000850103A8C501945113074702B307E6409C
:10351000232E77FC232057FE2322F7FF2324E7FFE7
:103520002326D7FF2328C7FF232A67FE232C07FF64
:10353000232ED7FE93854502E347F4FAAE86BA8779
:103540006371C70203A806009107910623AE07FF27
:10355000E3EAC7FE9307F6FF998FF19B91073E9729
:10356000BE95636517013244410182809C210507A5
:103570008505A30FF7FEE388E8FE9C210507850576
:10358000A30FF7FEE394E8FEF9BF000045786974E5
:1035900020534C50204D6F64650D0000416E207526
:1035A0006E657870656374656420657863657074B2
:1035B000696F6E20776173206F6363757265642035
:1035C0006174203078253038780D0A006D7476618A
:1035D0006C3A203078253038780D0A006572726EAA
:1035E0006F2025643A2025730D0A0000496E73741C
:1035F00072756374696F6E206164647265737320A1
:103600006D6973616C69676E65640000496E7374FF
:1036100072756374696F6E2061636365737320668E
:1036200061756C740000000000000000496C6C655E
:1036300067616C20696E737472756374696F6E0074
:103640000000000000000000000000004272656100
:103650006B706F696E7400000000000000000000D5
:103660000000000000000000000000004C6F6164DA
:103670002061646472657373206D6973616C69673E
:103680006E65640000000000000000004C6F616483
:1036900020616363657373206661756C740000005C
:1036A00000000000000000000000000053746F7272
:1036B000652F414D4F2061646472657373206D699D
:1036C00073616C69676E65640000000053746F720B
:1036D000652F414D4F20616363657373206661758B
:1036E0006C7400000000000000000000456E766968
:1036F000726F6E6D656E742063616C6C2066726FA4
:103700006D20552D6D6F646500000000456E766973
:10371000726F6E6D656E742063616C6C2066726F83
:103720006D20482D6D6F646500000000456E766960
:10373000726F6E6D656E742063616C6C2066726F63
:103740006D20532D6D6F646500000000456E766935
:10375000726F6E6D656E742063616C6C2066726F43
:103760006D204D2D6D6F646500000000556E6B6E11
:103770006F776E00000000000000000000000000F5
:10378000000000000000000000000000617373658D
:103790007274206661756C74206174206C696E654A
:1037A0002025642C20726561736F6E2025730D0ACD
:1037B00000000000445020496E666F3A0D00000082
:1037C000656E61626C65643A2025640D0A00000034
:1037D000636F6E6E65637465643A2025640D0A003C
:1037E0006C6F775F706F7765723A2025640D0A0001
:1037F0006D756C74695F66756E633A2025640D0A99
:10380000000000006870643A2025640D0A00000082
:103810006972713A2025640D0A0000007573625FB9
:103820007265713A2025640D0A000000657869749C
:103830005F7265713A2025640D0A00004F4646000C
:10384000546F67676C6520564255532025730D0AE7
:1038500000000000546F67676C652056434F4E4E62
:103860000D000000480000004C000000546F676726
:103870006C65204450204850442025730D0A0000F8
:10388000504420446973636F6E6E6563740D00006D
:10389000504420436F6E6E6563742061742043430F
:1038A00025640D0A000000004261642056434F4E1B
:1038B0004E20546F67676C652050696E00000000F1
:1038C0005553425044204952512048616E646C6502
:1038D00072204E554C4C20506F696E7465722045B5
:1038E0007863657074696F6E000000004120756E2A
:1038F0006578706563746564204861726420526500
:1039000073657420776173206F63637572656420DB
:1039100066726F6D205546500D0000007379735F1D
:10392000636C6B3A2025640D0A00000063686970BF
:103930005F69643A203078253038780D0A0000003D
:10394000456E61626C65204750494F0D00000000D4
:10395000456E61626C65204949430D00526573658F
:1039600074204D50440D00006D70645F69643A200E
:103970003078253038780D0A00000000456E61620D
:103980006C65204D504420504C4C0D00456E6162DA
:103990006C65204D5044204C696E6B0D000000009A
:1039A00057616974696E67204D50442052656164A7
:1039B000790D0000446973706C6179506F727420E6
:1039C0004C696E6B20456E61626C65640D00000091
:1039D000456E61626C65204144430D00456E616235
:1039E0006C65205553422050440D0000456E6162C5
:1039F0006C652055534250442054696D65720D002A
:103A0000456E74657220534C50204D6F64650D00F7
:103A10004F4E0000766275735F6D766F6C74733A0B
:103A200020253034640D0A005044206E65676F74A1
:103A3000696174696F6E2066696E69736865640D8B
:103A40000000000044657669636520646F65736EED
:103A5000277420737570706F72742056444D0D007A
:103A600056444D20496E666F3A0D00005649443A5F
:103A7000203078253034780D0A0000005049443A4F
:103A8000203078253034780D0A0000006263643AF3
:103A9000203078253034780D0A0000007479706584
:103AA0003A2025640D0A0000686F73743A2025647B
:103AB0000D0A00006465766963653A2025640D0A85
:103AC000000000006D6F64616C3A2025640D0A00EF
:103AD0007869643A203078253038780D0A00000083
:103AE00068775F7665723A203078253034780D0A31
:103AF0000000000066775F7665723A2030782530E6
:103B000034780D0A00000000766275735F7265718B
:103B10003A2025640D0A000076636F6E6E5F726551
:103B2000713A2025640D0A0076636F6E6E5F7761CF
:103B300074743A2025640D0A0000000075736273E6
:103B4000735F7369673A2025640D0A0075736273A9
:103B5000735F6469723A203078253032780D0A003C
:103B600044657669636520646F65736E277420739E
:103B70007570706F7274204D6F64616C204F70654A
:103B8000726174696F6E0D004465766963652064C7
:103B90006F65736E277420636F6E7461696E206148
:103BA0006E7920535649440D000000004465766943
:103BB000636520646F65736E277420737570706F12
:103BC000727420446973706C6179506F72740D0067
:103BD0004D4F44452025643A0D0A00006361706131
:103BE00062696C6974793A2025640D0A000000004E
:103BF00072656365707461626C653A2025640D0AB4
:103C000000000000737570706F727465645F706996
:103C10006E3A203078253032780D0A004450204D1D
:103C20004F444520256420697320757365640D0A2F
:103C300000000000446576696365206E6F74206340
:103C4000617061626C65206F66205546505F440D5F
:103C500000000000456D7074792056444F20506F6D
:103C6000730000004465766963652072656675734C
:103C7000656420746F20656E746572204450204125
:103C80006C742D6D6F64652064756520746F20758C
:103C90006E6B6E6F776E20726561736F6E0D0000D4
:103CA000445020416C742D6D6F64652065737461A0
:103CB000626C69736865640D00000000446973708C
:103CC0006C6179506F7274206E6F742072656164DC
:103CD000792C2077616974696E670D005065726692
:103CE0006F726D204450206E65676F7469617469EE
:103CF0006F6E206379636C650D000000546F676719
:103D00006C65204450205349474E414C2025730D8B
:103D10000A000000546F67676C65204450204D55C1
:103D2000580D00004450204C696E6B20657374611F
:103D3000626C69736865640D00000000556E6578FB
:103D40007065637465642050442046534D00000044
:103D5000A61B0000681B00007421000074210000F5
:103D600074210000742100007421000074210000FF
:103D7000742100007421000074210000B61B0000B3
:103D80004E1C0000742100000A1C0000541B00009F
:103D90007421000074210000F21A00007421000058
:103DA00074210000742100007421000074210000BF
:103DB00074210000742100007421000074210000AF
:103DC000742100007421000074210000F619000025
:103DD00074210000041A0000D01F0000FA1E000029
:103DE000501E0000461D0000881C00001A1D000027
:0C3DF000DC1F0000286E756C6C290000C0
:103DFC00010203040506070801020304050607086F
:103E0C00010203040506070801020304050607085E
:103E1C0000366E01444444444444444444444444C1
:043E2C009690012C3F
:00000001FF
